{
  "_format": "hh3-artifact-1",
  "contractName": "AceAirCombat",
  "sourceName": "contracts/AceAirCombat.sol",
  "abi": [
    {
      "inputs": [],
      "stateMutability": "nonpayable",
      "type": "constructor"
    },
    {
      "anonymous": false,
      "inputs": [
        {
          "indexed": true,
          "internalType": "address",
          "name": "player",
          "type": "address"
        },
        {
          "indexed": false,
          "internalType": "uint256",
          "name": "moveSpeed",
          "type": "uint256"
        },
        {
          "indexed": false,
          "internalType": "uint256",
          "name": "attackSpeed",
          "type": "uint256"
        },
        {
          "indexed": false,
          "internalType": "uint256",
          "name": "firepower",
          "type": "uint256"
        },
        {
          "indexed": false,
          "internalType": "uint256",
          "name": "totalCost",
          "type": "uint256"
        }
      ],
      "name": "PlaneUpgraded",
      "type": "event"
    },
    {
      "anonymous": false,
      "inputs": [
        {
          "indexed": true,
          "internalType": "address",
          "name": "initializer",
          "type": "address"
        },
        {
          "indexed": false,
          "internalType": "uint256",
          "name": "amount",
          "type": "uint256"
        }
      ],
      "name": "PrizePoolInitialized",
      "type": "event"
    },
    {
      "inputs": [],
      "name": "UPGRADE_COST_PER_POINT",
      "outputs": [
        {
          "internalType": "uint256",
          "name": "",
          "type": "uint256"
        }
      ],
      "stateMutability": "view",
      "type": "function"
    },
    {
      "inputs": [],
      "name": "initializePrizePool",
      "outputs": [],
      "stateMutability": "payable",
      "type": "function"
    },
    {
      "inputs": [],
      "name": "owner",
      "outputs": [
        {
          "internalType": "address",
          "name": "",
          "type": "address"
        }
      ],
      "stateMutability": "view",
      "type": "function"
    },
    {
      "inputs": [
        {
          "internalType": "address",
          "name": "",
          "type": "address"
        }
      ],
      "name": "players",
      "outputs": [
        {
          "internalType": "bool",
          "name": "registered",
          "type": "bool"
        },
        {
          "internalType": "uint256",
          "name": "score",
          "type": "uint256"
        },
        {
          "components": [
            {
              "internalType": "uint256",
              "name": "moveSpeed",
              "type": "uint256"
            },
            {
              "internalType": "uint256",
              "name": "attackSpeed",
              "type": "uint256"
            },
            {
              "internalType": "uint256",
              "name": "firepower",
              "type": "uint256"
            }
          ],
          "internalType": "struct AceAirCombat.Plane",
          "name": "plane",
          "type": "tuple"
        }
      ],
      "stateMutability": "view",
      "type": "function"
    },
    {
      "inputs": [],
      "name": "prizePool",
      "outputs": [
        {
          "internalType": "uint256",
          "name": "",
          "type": "uint256"
        }
      ],
      "stateMutability": "view",
      "type": "function"
    },
    {
      "inputs": [],
      "name": "prizePoolInitialized",
      "outputs": [
        {
          "internalType": "bool",
          "name": "",
          "type": "bool"
        }
      ],
      "stateMutability": "view",
      "type": "function"
    },
    {
      "inputs": [],
      "name": "registerPlayer",
      "outputs": [],
      "stateMutability": "nonpayable",
      "type": "function"
    },
    {
      "inputs": [
        {
          "internalType": "uint256",
          "name": "moveSpeed",
          "type": "uint256"
        },
        {
          "internalType": "uint256",
          "name": "attackSpeed",
          "type": "uint256"
        },
        {
          "internalType": "uint256",
          "name": "firepower",
          "type": "uint256"
        }
      ],
      "name": "upgradePlane",
      "outputs": [],
      "stateMutability": "payable",
      "type": "function"
    }
  ],
  "bytecode": "0x6080604052348015600e575f5ffd5b505f80546001600160a01b031916331790556106f78061002d5f395ff3fe608060405260043610610079575f3560e01c80638da5cb5b1161004c5780638da5cb5b146100fe578063ad4d2c9814610134578063cd24f49714610147578063e2eb41ff1461014f575f5ffd5b80632fb355981461007d57806351b4ce03146100ab5780635c07a4b0146100d3578063719ce73e146100e9575b5f5ffd5b348015610088575f5ffd5b506002546100969060ff1681565b60405190151581526020015b60405180910390f35b3480156100b6575f5ffd5b506100c566038d7ea4c6800081565b6040519081526020016100a2565b3480156100de575f5ffd5b506100e76101e2565b005b3480156100f4575f5ffd5b506100c560015481565b348015610109575f5ffd5b505f5461011c906001600160a01b031681565b6040516001600160a01b0390911681526020016100a2565b6100e7610142366004610627565b6102bd565b6100e76104e9565b34801561015a575f5ffd5b506101b2610169366004610650565b600360208181525f9283526040928390208054600182015485516060810187526002840154815294830154938501939093526004909101549383019390935260ff909216919083565b6040805193151584526020808501939093528151848201529181015160608401520151608082015260a0016100a2565b335f9081526003602052604090205460ff16156102465760405162461bcd60e51b815260206004820152601960248201527f506c6179657220616c726561647920726567697374657265640000000000000060448201526064015b60405180910390fd5b604080516060808201835260018083525f6020808501828152865194850187528385528482018490528487018490528587019485523383526003808352928790209551865460ff19169015151786555192850192909255915180516002850155908101519183019190915590910151600490910155565b335f9081526003602052604090205460ff166103135760405162461bcd60e51b8152602060048201526015602482015274141b185e595c881b9bdd081c9959da5cdd195c9959605a1b604482015260640161023d565b5f831561032c57610325600182610691565b9050610351565b821561033d57610325600182610691565b81156103515761034e600182610691565b90505b5f81116103ac5760405162461bcd60e51b815260206004820152602360248201527f4d7573742075706772616465206174206c65617374206f6e652061747472696260448201526275746560e81b606482015260840161023d565b5f6103be66038d7ea4c68000836106aa565b905080341461040f5760405162461bcd60e51b815260206004820152601960248201527f496e636f72726563742045544820616d6f756e742073656e7400000000000000604482015260640161023d565b335f9081526003602052604081206002018054879290610430908490610691565b9091555050335f9081526003602081905260408220018054869290610456908490610691565b9091555050335f908152600360205260408120600401805485929061047c908490610691565b925050819055503460015f8282546104949190610691565b9091555050604080518681526020810186905290810184905234606082015233907fa11fff6845fb3bf56dae236cca87a18168508c5b06aaf7225f5a51f99725357d9060800160405180910390a25050505050565b5f546001600160a01b0316331461053b5760405162461bcd60e51b81526020600482015260166024820152752737ba103a34329031b7b73a3930b1ba1037bbb732b960511b604482015260640161023d565b60025460ff161561058e5760405162461bcd60e51b815260206004820152601e60248201527f5072697a6520706f6f6c20616c726561647920696e697469616c697a65640000604482015260640161023d565b5f34116105dd5760405162461bcd60e51b815260206004820152601e60248201527f4d757374206465706f736974206120706f73697469766520616d6f756e740000604482015260640161023d565b3460018181556002805460ff1916909117905560405190815233907f500a9140ce418f17c14fbd211534f9783213a883757893d3aa942738691aa0d99060200160405180910390a2565b5f5f5f60608486031215610639575f5ffd5b505081359360208301359350604090920135919050565b5f60208284031215610660575f5ffd5b81356001600160a01b0381168114610676575f5ffd5b9392505050565b634e487b7160e01b5f52601160045260245ffd5b808201808211156106a4576106a461067d565b92915050565b80820281158282048414176106a4576106a461067d56fea2646970667358221220d1bfb89aca292b61e9c890b3289a43f10f5b8b3747db23d227650b23a001a43a64736f6c634300081c0033",
  "linkReferences": {},
  "deployedLinkReferences": {},
  "immutableReferences": {},
  "inputSourceName": "project/contracts/AceAirCombat.sol",
  "buildInfoId": "solc-0_8_28-93c22089661bfada4d6fed9a456772c85db41ba3"
}