{
  "_format": "hh3-artifact-1",
  "contractName": "AceAirCombat",
  "sourceName": "contracts/AceAirCombat.sol",
  "abi": [
    {
      "inputs": [],
      "stateMutability": "nonpayable",
      "type": "constructor"
    },
    {
      "anonymous": false,
      "inputs": [
        {
          "indexed": true,
          "internalType": "address",
          "name": "player",
          "type": "address"
        },
        {
          "indexed": false,
          "internalType": "uint256",
          "name": "moveSpeed",
          "type": "uint256"
        },
        {
          "indexed": false,
          "internalType": "uint256",
          "name": "attackSpeed",
          "type": "uint256"
        },
        {
          "indexed": false,
          "internalType": "uint256",
          "name": "firepower",
          "type": "uint256"
        },
        {
          "indexed": false,
          "internalType": "uint256",
          "name": "totalCost",
          "type": "uint256"
        }
      ],
      "name": "PlaneUpgraded",
      "type": "event"
    },
    {
      "anonymous": false,
      "inputs": [
        {
          "indexed": true,
          "internalType": "address",
          "name": "initializer",
          "type": "address"
        },
        {
          "indexed": false,
          "internalType": "uint256",
          "name": "amount",
          "type": "uint256"
        }
      ],
      "name": "PrizePoolInitialized",
      "type": "event"
    },
    {
      "anonymous": false,
      "inputs": [
        {
          "indexed": true,
          "internalType": "address",
          "name": "player",
          "type": "address"
        },
        {
          "indexed": false,
          "internalType": "uint256",
          "name": "scoreSpent",
          "type": "uint256"
        },
        {
          "indexed": false,
          "internalType": "uint256",
          "name": "pasReceived",
          "type": "uint256"
        }
      ],
      "name": "ScoreRedeemed",
      "type": "event"
    },
    {
      "anonymous": false,
      "inputs": [
        {
          "indexed": true,
          "internalType": "address",
          "name": "player",
          "type": "address"
        },
        {
          "indexed": false,
          "internalType": "uint256",
          "name": "newScore",
          "type": "uint256"
        }
      ],
      "name": "ScoreSubmitted",
      "type": "event"
    },
    {
      "inputs": [],
      "name": "PAS_PER_REDEMPTION",
      "outputs": [
        {
          "internalType": "uint256",
          "name": "",
          "type": "uint256"
        }
      ],
      "stateMutability": "view",
      "type": "function"
    },
    {
      "inputs": [],
      "name": "SCORE_PER_REDEMPTION",
      "outputs": [
        {
          "internalType": "uint256",
          "name": "",
          "type": "uint256"
        }
      ],
      "stateMutability": "view",
      "type": "function"
    },
    {
      "inputs": [],
      "name": "UPGRADE_COST_PER_POINT",
      "outputs": [
        {
          "internalType": "uint256",
          "name": "",
          "type": "uint256"
        }
      ],
      "stateMutability": "view",
      "type": "function"
    },
    {
      "inputs": [],
      "name": "initializePrizePool",
      "outputs": [],
      "stateMutability": "payable",
      "type": "function"
    },
    {
      "inputs": [],
      "name": "owner",
      "outputs": [
        {
          "internalType": "address",
          "name": "",
          "type": "address"
        }
      ],
      "stateMutability": "view",
      "type": "function"
    },
    {
      "inputs": [
        {
          "internalType": "address",
          "name": "",
          "type": "address"
        }
      ],
      "name": "players",
      "outputs": [
        {
          "internalType": "bool",
          "name": "registered",
          "type": "bool"
        },
        {
          "internalType": "uint256",
          "name": "score",
          "type": "uint256"
        },
        {
          "components": [
            {
              "internalType": "uint256",
              "name": "moveSpeed",
              "type": "uint256"
            },
            {
              "internalType": "uint256",
              "name": "attackSpeed",
              "type": "uint256"
            },
            {
              "internalType": "uint256",
              "name": "firepower",
              "type": "uint256"
            }
          ],
          "internalType": "struct AceAirCombat.Plane",
          "name": "plane",
          "type": "tuple"
        }
      ],
      "stateMutability": "view",
      "type": "function"
    },
    {
      "inputs": [],
      "name": "prizePool",
      "outputs": [
        {
          "internalType": "uint256",
          "name": "",
          "type": "uint256"
        }
      ],
      "stateMutability": "view",
      "type": "function"
    },
    {
      "inputs": [],
      "name": "prizePoolInitialized",
      "outputs": [
        {
          "internalType": "bool",
          "name": "",
          "type": "bool"
        }
      ],
      "stateMutability": "view",
      "type": "function"
    },
    {
      "inputs": [
        {
          "internalType": "uint256",
          "name": "scoreToRedeem",
          "type": "uint256"
        }
      ],
      "name": "redeemScore",
      "outputs": [],
      "stateMutability": "nonpayable",
      "type": "function"
    },
    {
      "inputs": [],
      "name": "registerPlayer",
      "outputs": [],
      "stateMutability": "nonpayable",
      "type": "function"
    },
    {
      "inputs": [
        {
          "internalType": "uint256",
          "name": "newScore",
          "type": "uint256"
        }
      ],
      "name": "submitScore",
      "outputs": [],
      "stateMutability": "nonpayable",
      "type": "function"
    },
    {
      "inputs": [
        {
          "internalType": "uint256",
          "name": "moveSpeed",
          "type": "uint256"
        },
        {
          "internalType": "uint256",
          "name": "attackSpeed",
          "type": "uint256"
        },
        {
          "internalType": "uint256",
          "name": "firepower",
          "type": "uint256"
        }
      ],
      "name": "upgradePlane",
      "outputs": [],
      "stateMutability": "payable",
      "type": "function"
    }
  ],
  "bytecode": "0x6080604052348015600e575f5ffd5b505f80546001600160a01b03191633179055610aeb8061002d5f395ff3fe6080604052600436106100a5575f3560e01c80639f074afb116100625780639f074afb14610160578063ad4d2c9814610175578063aff0b29714610188578063cd24f497146101a7578063e2eb41ff146101af578063f226671614610242575f5ffd5b80632605ba45146100a95780632fb35598146100d657806351b4ce03146100a95780635c07a4b0146100ff578063719ce73e146101155780638da5cb5b1461012a575b5f5ffd5b3480156100b4575f5ffd5b506100c366038d7ea4c6800081565b6040519081526020015b60405180910390f35b3480156100e1575f5ffd5b506002546100ef9060ff1681565b60405190151581526020016100cd565b34801561010a575f5ffd5b50610113610261565b005b348015610120575f5ffd5b506100c360015481565b348015610135575f5ffd5b505f54610148906001600160a01b031681565b6040516001600160a01b0390911681526020016100cd565b34801561016b575f5ffd5b506100c361271081565b610113610183366004610988565b61033c565b348015610193575f5ffd5b506101136101a23660046109b1565b61051a565b6101136105b3565b3480156101ba575f5ffd5b506102126101c93660046109c8565b600360208181525f9283526040928390208054600182015485516060810187526002840154815294830154938501939093526004909101549383019390935260ff909216919083565b6040805193151584526020808501939093528151848201529181015160608401520151608082015260a0016100cd565b34801561024d575f5ffd5b5061011361025c3660046109b1565b6106f1565b335f9081526003602052604090205460ff16156102c55760405162461bcd60e51b815260206004820152601960248201527f506c6179657220616c726561647920726567697374657265640000000000000060448201526064015b60405180910390fd5b604080516060808201835260018083525f6020808501828152865194850187528385528482018490528487018490528587019485523383526003808352928790209551865460ff19169015151786555192850192909255915180516002850155908101519183019190915590910151600490910155565b335f9081526003602052604090205460ff1661036a5760405162461bcd60e51b81526004016102bc906109f5565b5f816103768486610a38565b6103809190610a38565b90505f81116103dd5760405162461bcd60e51b815260206004820152602360248201527f4d7573742075706772616465206174206c65617374206f6e652061747472696260448201526275746560e81b60648201526084016102bc565b5f6103ef66038d7ea4c6800083610a51565b90508034146104405760405162461bcd60e51b815260206004820152601960248201527f496e636f72726563742045544820616d6f756e742073656e740000000000000060448201526064016102bc565b335f9081526003602052604081206002018054879290610461908490610a38565b9091555050335f9081526003602081905260408220018054869290610487908490610a38565b9091555050335f90815260036020526040812060040180548592906104ad908490610a38565b925050819055503460015f8282546104c59190610a38565b9091555050604080518681526020810186905290810184905234606082015233907fa11fff6845fb3bf56dae236cca87a18168508c5b06aaf7225f5a51f99725357d9060800160405180910390a25050505050565b335f9081526003602052604090205460ff166105485760405162461bcd60e51b81526004016102bc906109f5565b335f908152600360205260409020600101548111156105b057335f8181526003602052604090819020600101839055517fa578df9b0453d14d7ed8615ee0e9d58f70e041e91fc5865e3b71f81ea05296c0906105a79084815260200190565b60405180910390a25b50565b5f546001600160a01b031633146106055760405162461bcd60e51b81526020600482015260166024820152752737ba103a34329031b7b73a3930b1ba1037bbb732b960511b60448201526064016102bc565b60025460ff16156106585760405162461bcd60e51b815260206004820152601e60248201527f5072697a6520706f6f6c20616c726561647920696e697469616c697a6564000060448201526064016102bc565b5f34116106a75760405162461bcd60e51b815260206004820152601e60248201527f4d757374206465706f736974206120706f73697469766520616d6f756e74000060448201526064016102bc565b3460018181556002805460ff1916909117905560405190815233907f500a9140ce418f17c14fbd211534f9783213a883757893d3aa942738691aa0d99060200160405180910390a2565b335f9081526003602052604090205460ff1661071f5760405162461bcd60e51b81526004016102bc906109f5565b5f81118015610737575061073561271082610a7c565b155b6107b35760405162461bcd60e51b815260206004820152604160248201527f73636f7265546f52656465656d206d757374206265206120706f73697469766560448201527f206d756c7469706c65206f662053434f52455f5045525f524544454d5054494f6064820152602760f91b608482015260a4016102bc565b335f908152600360205260409020600101548111156108095760405162461bcd60e51b8152602060048201526012602482015271496e73756666696369656e742073636f726560701b60448201526064016102bc565b5f61081661271083610a8f565b90505f61082a66038d7ea4c6800083610a51565b905080600154101561087e5760405162461bcd60e51b815260206004820152601760248201527f496e73756666696369656e74207072697a6520706f6f6c00000000000000000060448201526064016102bc565b335f908152600360205260408120600101805485929061089f908490610aa2565b925050819055508060015f8282546108b79190610aa2565b90915550506040515f90339083908381818185875af1925050503d805f81146108fb576040519150601f19603f3d011682016040523d82523d5f602084013e610900565b606091505b50509050806109475760405162461bcd60e51b8152602060048201526013602482015272115512081d1c985b9cd9995c8819985a5b1959606a1b60448201526064016102bc565b604080518581526020810184905233917f031ca9472e2837d69fdb1a6141b73e836a6467a4fa515ffefc26ec782d263f05910160405180910390a250505050565b5f5f5f6060848603121561099a575f5ffd5b505081359360208301359350604090920135919050565b5f602082840312156109c1575f5ffd5b5035919050565b5f602082840312156109d8575f5ffd5b81356001600160a01b03811681146109ee575f5ffd5b9392505050565b602080825260159082015274141b185e595c881b9bdd081c9959da5cdd195c9959605a1b604082015260600190565b634e487b7160e01b5f52601160045260245ffd5b80820180821115610a4b57610a4b610a24565b92915050565b8082028115828204841417610a4b57610a4b610a24565b634e487b7160e01b5f52601260045260245ffd5b5f82610a8a57610a8a610a68565b500690565b5f82610a9d57610a9d610a68565b500490565b81810381811115610a4b57610a4b610a2456fea2646970667358221220bc778ab1ad8cdd9752d49a363ee1b6f2357e86ce0c3d174b1d780db67941d39f64736f6c634300081c0033",
  "linkReferences": {},
  "deployedLinkReferences": {},
  "immutableReferences": {},
  "inputSourceName": "project/contracts/AceAirCombat.sol",
  "buildInfoId": "solc-0_8_28-2a88c9ae2b8a1f74207302b2b0b4caa01efee822"
}