{
  "_format": "hh-sol-artifact-1",
  "contractName": "DuelPlatform",
  "sourceName": "contracts/DuelPlatform.sol",
  "abi": [
    {
      "inputs": [
        {
          "internalType": "address",
          "name": "_platformWallet",
          "type": "address"
        },
        {
          "internalType": "address",
          "name": "_oracleAddress",
          "type": "address"
        }
      ],
      "stateMutability": "nonpayable",
      "type": "constructor"
    },
    {
      "inputs": [],
      "name": "EnforcedPause",
      "type": "error"
    },
    {
      "inputs": [],
      "name": "ExpectedPause",
      "type": "error"
    },
    {
      "inputs": [
        {
          "internalType": "address",
          "name": "owner",
          "type": "address"
        }
      ],
      "name": "OwnableInvalidOwner",
      "type": "error"
    },
    {
      "inputs": [
        {
          "internalType": "address",
          "name": "account",
          "type": "address"
        }
      ],
      "name": "OwnableUnauthorizedAccount",
      "type": "error"
    },
    {
      "inputs": [],
      "name": "ReentrancyGuardReentrantCall",
      "type": "error"
    },
    {
      "anonymous": false,
      "inputs": [
        {
          "indexed": true,
          "internalType": "uint256",
          "name": "matchId",
          "type": "uint256"
        },
        {
          "indexed": false,
          "internalType": "string",
          "name": "reason",
          "type": "string"
        }
      ],
      "name": "MatchCancelled",
      "type": "event"
    },
    {
      "anonymous": false,
      "inputs": [
        {
          "indexed": true,
          "internalType": "uint256",
          "name": "matchId",
          "type": "uint256"
        },
        {
          "indexed": false,
          "internalType": "enum DuelPlatform.MatchMode",
          "name": "mode",
          "type": "uint8"
        },
        {
          "indexed": true,
          "internalType": "address",
          "name": "creator",
          "type": "address"
        },
        {
          "indexed": false,
          "internalType": "uint256",
          "name": "stakeAmount",
          "type": "uint256"
        },
        {
          "indexed": false,
          "internalType": "string",
          "name": "description",
          "type": "string"
        }
      ],
      "name": "MatchCreated",
      "type": "event"
    },
    {
      "anonymous": false,
      "inputs": [
        {
          "indexed": true,
          "internalType": "uint256",
          "name": "matchId",
          "type": "uint256"
        },
        {
          "indexed": true,
          "internalType": "address",
          "name": "winner",
          "type": "address"
        },
        {
          "indexed": false,
          "internalType": "uint256",
          "name": "winnerAmount",
          "type": "uint256"
        },
        {
          "indexed": false,
          "internalType": "uint256",
          "name": "refereeFee",
          "type": "uint256"
        },
        {
          "indexed": false,
          "internalType": "uint256",
          "name": "platformFee",
          "type": "uint256"
        }
      ],
      "name": "MatchSettled",
      "type": "event"
    },
    {
      "anonymous": false,
      "inputs": [
        {
          "indexed": true,
          "internalType": "uint256",
          "name": "matchId",
          "type": "uint256"
        },
        {
          "indexed": true,
          "internalType": "address",
          "name": "participant1",
          "type": "address"
        },
        {
          "indexed": true,
          "internalType": "address",
          "name": "participant2",
          "type": "address"
        },
        {
          "indexed": false,
          "internalType": "uint256",
          "name": "startTime",
          "type": "uint256"
        }
      ],
      "name": "MatchStarted",
      "type": "event"
    },
    {
      "anonymous": false,
      "inputs": [
        {
          "indexed": true,
          "internalType": "address",
          "name": "oldOracle",
          "type": "address"
        },
        {
          "indexed": true,
          "internalType": "address",
          "name": "newOracle",
          "type": "address"
        }
      ],
      "name": "OracleUpdated",
      "type": "event"
    },
    {
      "anonymous": false,
      "inputs": [
        {
          "indexed": true,
          "internalType": "address",
          "name": "previousOwner",
          "type": "address"
        },
        {
          "indexed": true,
          "internalType": "address",
          "name": "newOwner",
          "type": "address"
        }
      ],
      "name": "OwnershipTransferred",
      "type": "event"
    },
    {
      "anonymous": false,
      "inputs": [
        {
          "indexed": true,
          "internalType": "uint256",
          "name": "matchId",
          "type": "uint256"
        },
        {
          "indexed": true,
          "internalType": "address",
          "name": "participant",
          "type": "address"
        },
        {
          "indexed": false,
          "internalType": "uint8",
          "name": "position",
          "type": "uint8"
        }
      ],
      "name": "ParticipantJoined",
      "type": "event"
    },
    {
      "anonymous": false,
      "inputs": [
        {
          "indexed": false,
          "internalType": "address",
          "name": "account",
          "type": "address"
        }
      ],
      "name": "Paused",
      "type": "event"
    },
    {
      "anonymous": false,
      "inputs": [
        {
          "indexed": true,
          "internalType": "address",
          "name": "oldWallet",
          "type": "address"
        },
        {
          "indexed": true,
          "internalType": "address",
          "name": "newWallet",
          "type": "address"
        }
      ],
      "name": "PlatformWalletUpdated",
      "type": "event"
    },
    {
      "anonymous": false,
      "inputs": [
        {
          "indexed": false,
          "internalType": "address",
          "name": "account",
          "type": "address"
        }
      ],
      "name": "Unpaused",
      "type": "event"
    },
    {
      "inputs": [],
      "name": "FEE_DENOMINATOR",
      "outputs": [
        {
          "internalType": "uint256",
          "name": "",
          "type": "uint256"
        }
      ],
      "stateMutability": "view",
      "type": "function"
    },
    {
      "inputs": [],
      "name": "MAX_MATCH_DURATION",
      "outputs": [
        {
          "internalType": "uint256",
          "name": "",
          "type": "uint256"
        }
      ],
      "stateMutability": "view",
      "type": "function"
    },
    {
      "inputs": [],
      "name": "MIN_MATCH_DURATION",
      "outputs": [
        {
          "internalType": "uint256",
          "name": "",
          "type": "uint256"
        }
      ],
      "stateMutability": "view",
      "type": "function"
    },
    {
      "inputs": [],
      "name": "PLATFORM_FEE_RATE",
      "outputs": [
        {
          "internalType": "uint256",
          "name": "",
          "type": "uint256"
        }
      ],
      "stateMutability": "view",
      "type": "function"
    },
    {
      "inputs": [],
      "name": "REFEREE_FEE_RATE",
      "outputs": [
        {
          "internalType": "uint256",
          "name": "",
          "type": "uint256"
        }
      ],
      "stateMutability": "view",
      "type": "function"
    },
    {
      "inputs": [],
      "name": "VERSION",
      "outputs": [
        {
          "internalType": "string",
          "name": "",
          "type": "string"
        }
      ],
      "stateMutability": "view",
      "type": "function"
    },
    {
      "inputs": [
        {
          "internalType": "address",
          "name": "",
          "type": "address"
        }
      ],
      "name": "authorizedOracles",
      "outputs": [
        {
          "internalType": "bool",
          "name": "",
          "type": "bool"
        }
      ],
      "stateMutability": "view",
      "type": "function"
    },
    {
      "inputs": [
        {
          "internalType": "uint256",
          "name": "_matchId",
          "type": "uint256"
        }
      ],
      "name": "cancelMatch",
      "outputs": [],
      "stateMutability": "nonpayable",
      "type": "function"
    },
    {
      "inputs": [
        {
          "internalType": "enum DuelPlatform.MatchMode",
          "name": "_mode",
          "type": "uint8"
        },
        {
          "internalType": "uint256",
          "name": "_stakeAmount",
          "type": "uint256"
        },
        {
          "internalType": "uint256",
          "name": "_startTime",
          "type": "uint256"
        },
        {
          "internalType": "uint256",
          "name": "_endTime",
          "type": "uint256"
        },
        {
          "internalType": "string",
          "name": "_description",
          "type": "string"
        },
        {
          "internalType": "string",
          "name": "_externalMatchId",
          "type": "string"
        }
      ],
      "name": "createMatch",
      "outputs": [
        {
          "internalType": "uint256",
          "name": "",
          "type": "uint256"
        }
      ],
      "stateMutability": "payable",
      "type": "function"
    },
    {
      "inputs": [
        {
          "internalType": "string",
          "name": "",
          "type": "string"
        }
      ],
      "name": "externalMatchIds",
      "outputs": [
        {
          "internalType": "uint256",
          "name": "",
          "type": "uint256"
        }
      ],
      "stateMutability": "view",
      "type": "function"
    },
    {
      "inputs": [
        {
          "internalType": "uint256",
          "name": "_matchId",
          "type": "uint256"
        }
      ],
      "name": "getMatch",
      "outputs": [
        {
          "components": [
            {
              "internalType": "uint256",
              "name": "matchId",
              "type": "uint256"
            },
            {
              "internalType": "enum DuelPlatform.MatchMode",
              "name": "mode",
              "type": "uint8"
            },
            {
              "internalType": "address",
              "name": "referee",
              "type": "address"
            },
            {
              "internalType": "address[2]",
              "name": "participants",
              "type": "address[2]"
            },
            {
              "internalType": "uint256",
              "name": "stakeAmount",
              "type": "uint256"
            },
            {
              "internalType": "enum DuelPlatform.MatchStatus",
              "name": "status",
              "type": "uint8"
            },
            {
              "internalType": "address",
              "name": "winner",
              "type": "address"
            },
            {
              "internalType": "uint256",
              "name": "createdAt",
              "type": "uint256"
            },
            {
              "internalType": "uint256",
              "name": "startTime",
              "type": "uint256"
            },
            {
              "internalType": "uint256",
              "name": "endTime",
              "type": "uint256"
            },
            {
              "internalType": "string",
              "name": "description",
              "type": "string"
            },
            {
              "internalType": "string",
              "name": "externalMatchId",
              "type": "string"
            },
            {
              "internalType": "bool",
              "name": "isSettled",
              "type": "bool"
            }
          ],
          "internalType": "struct DuelPlatform.Match",
          "name": "",
          "type": "tuple"
        }
      ],
      "stateMutability": "view",
      "type": "function"
    },
    {
      "inputs": [
        {
          "internalType": "string",
          "name": "_externalMatchId",
          "type": "string"
        }
      ],
      "name": "getMatchByExternalId",
      "outputs": [
        {
          "components": [
            {
              "internalType": "uint256",
              "name": "matchId",
              "type": "uint256"
            },
            {
              "internalType": "enum DuelPlatform.MatchMode",
              "name": "mode",
              "type": "uint8"
            },
            {
              "internalType": "address",
              "name": "referee",
              "type": "address"
            },
            {
              "internalType": "address[2]",
              "name": "participants",
              "type": "address[2]"
            },
            {
              "internalType": "uint256",
              "name": "stakeAmount",
              "type": "uint256"
            },
            {
              "internalType": "enum DuelPlatform.MatchStatus",
              "name": "status",
              "type": "uint8"
            },
            {
              "internalType": "address",
              "name": "winner",
              "type": "address"
            },
            {
              "internalType": "uint256",
              "name": "createdAt",
              "type": "uint256"
            },
            {
              "internalType": "uint256",
              "name": "startTime",
              "type": "uint256"
            },
            {
              "internalType": "uint256",
              "name": "endTime",
              "type": "uint256"
            },
            {
              "internalType": "string",
              "name": "description",
              "type": "string"
            },
            {
              "internalType": "string",
              "name": "externalMatchId",
              "type": "string"
            },
            {
              "internalType": "bool",
              "name": "isSettled",
              "type": "bool"
            }
          ],
          "internalType": "struct DuelPlatform.Match",
          "name": "",
          "type": "tuple"
        }
      ],
      "stateMutability": "view",
      "type": "function"
    },
    {
      "inputs": [
        {
          "internalType": "address",
          "name": "_user",
          "type": "address"
        }
      ],
      "name": "getUserMatches",
      "outputs": [
        {
          "internalType": "uint256[]",
          "name": "",
          "type": "uint256[]"
        }
      ],
      "stateMutability": "view",
      "type": "function"
    },
    {
      "inputs": [
        {
          "internalType": "address",
          "name": "_user",
          "type": "address"
        }
      ],
      "name": "getUserStats",
      "outputs": [
        {
          "components": [
            {
              "internalType": "uint256",
              "name": "totalMatches",
              "type": "uint256"
            },
            {
              "internalType": "uint256",
              "name": "wonMatches",
              "type": "uint256"
            },
            {
              "internalType": "uint256",
              "name": "totalStaked",
              "type": "uint256"
            },
            {
              "internalType": "uint256",
              "name": "totalWon",
              "type": "uint256"
            }
          ],
          "internalType": "struct DuelPlatform.UserStats",
          "name": "",
          "type": "tuple"
        }
      ],
      "stateMutability": "view",
      "type": "function"
    },
    {
      "inputs": [
        {
          "internalType": "uint256",
          "name": "_matchId",
          "type": "uint256"
        }
      ],
      "name": "joinMatch",
      "outputs": [],
      "stateMutability": "payable",
      "type": "function"
    },
    {
      "inputs": [],
      "name": "matchCounter",
      "outputs": [
        {
          "internalType": "uint256",
          "name": "",
          "type": "uint256"
        }
      ],
      "stateMutability": "view",
      "type": "function"
    },
    {
      "inputs": [
        {
          "internalType": "uint256",
          "name": "",
          "type": "uint256"
        }
      ],
      "name": "matches",
      "outputs": [
        {
          "internalType": "uint256",
          "name": "matchId",
          "type": "uint256"
        },
        {
          "internalType": "enum DuelPlatform.MatchMode",
          "name": "mode",
          "type": "uint8"
        },
        {
          "internalType": "address",
          "name": "referee",
          "type": "address"
        },
        {
          "internalType": "uint256",
          "name": "stakeAmount",
          "type": "uint256"
        },
        {
          "internalType": "enum DuelPlatform.MatchStatus",
          "name": "status",
          "type": "uint8"
        },
        {
          "internalType": "address",
          "name": "winner",
          "type": "address"
        },
        {
          "internalType": "uint256",
          "name": "createdAt",
          "type": "uint256"
        },
        {
          "internalType": "uint256",
          "name": "startTime",
          "type": "uint256"
        },
        {
          "internalType": "uint256",
          "name": "endTime",
          "type": "uint256"
        },
        {
          "internalType": "string",
          "name": "description",
          "type": "string"
        },
        {
          "internalType": "string",
          "name": "externalMatchId",
          "type": "string"
        },
        {
          "internalType": "bool",
          "name": "isSettled",
          "type": "bool"
        }
      ],
      "stateMutability": "view",
      "type": "function"
    },
    {
      "inputs": [],
      "name": "oracleAddress",
      "outputs": [
        {
          "internalType": "address",
          "name": "",
          "type": "address"
        }
      ],
      "stateMutability": "view",
      "type": "function"
    },
    {
      "inputs": [],
      "name": "owner",
      "outputs": [
        {
          "internalType": "address",
          "name": "",
          "type": "address"
        }
      ],
      "stateMutability": "view",
      "type": "function"
    },
    {
      "inputs": [],
      "name": "pause",
      "outputs": [],
      "stateMutability": "nonpayable",
      "type": "function"
    },
    {
      "inputs": [],
      "name": "paused",
      "outputs": [
        {
          "internalType": "bool",
          "name": "",
          "type": "bool"
        }
      ],
      "stateMutability": "view",
      "type": "function"
    },
    {
      "inputs": [],
      "name": "platformWallet",
      "outputs": [
        {
          "internalType": "address",
          "name": "",
          "type": "address"
        }
      ],
      "stateMutability": "view",
      "type": "function"
    },
    {
      "inputs": [],
      "name": "renounceOwnership",
      "outputs": [],
      "stateMutability": "nonpayable",
      "type": "function"
    },
    {
      "inputs": [
        {
          "internalType": "address",
          "name": "_oracleAddress",
          "type": "address"
        }
      ],
      "name": "setOracle",
      "outputs": [],
      "stateMutability": "nonpayable",
      "type": "function"
    },
    {
      "inputs": [
        {
          "internalType": "address",
          "name": "_oracle",
          "type": "address"
        },
        {
          "internalType": "bool",
          "name": "_authorized",
          "type": "bool"
        }
      ],
      "name": "setOracleAuthorization",
      "outputs": [],
      "stateMutability": "nonpayable",
      "type": "function"
    },
    {
      "inputs": [
        {
          "internalType": "address",
          "name": "_platformWallet",
          "type": "address"
        }
      ],
      "name": "setPlatformWallet",
      "outputs": [],
      "stateMutability": "nonpayable",
      "type": "function"
    },
    {
      "inputs": [
        {
          "internalType": "uint256",
          "name": "_matchId",
          "type": "uint256"
        },
        {
          "internalType": "address",
          "name": "_winner",
          "type": "address"
        }
      ],
      "name": "submitResultByOracle",
      "outputs": [],
      "stateMutability": "nonpayable",
      "type": "function"
    },
    {
      "inputs": [
        {
          "internalType": "uint256",
          "name": "_matchId",
          "type": "uint256"
        },
        {
          "internalType": "address",
          "name": "_winner",
          "type": "address"
        }
      ],
      "name": "submitResultByReferee",
      "outputs": [],
      "stateMutability": "nonpayable",
      "type": "function"
    },
    {
      "inputs": [
        {
          "internalType": "address",
          "name": "newOwner",
          "type": "address"
        }
      ],
      "name": "transferOwnership",
      "outputs": [],
      "stateMutability": "nonpayable",
      "type": "function"
    },
    {
      "inputs": [],
      "name": "unpause",
      "outputs": [],
      "stateMutability": "nonpayable",
      "type": "function"
    },
    {
      "inputs": [
        {
          "internalType": "address",
          "name": "",
          "type": "address"
        },
        {
          "internalType": "uint256",
          "name": "",
          "type": "uint256"
        }
      ],
      "name": "userMatches",
      "outputs": [
        {
          "internalType": "uint256",
          "name": "",
          "type": "uint256"
        }
      ],
      "stateMutability": "view",
      "type": "function"
    },
    {
      "inputs": [
        {
          "internalType": "address",
          "name": "",
          "type": "address"
        }
      ],
      "name": "userStats",
      "outputs": [
        {
          "internalType": "uint256",
          "name": "totalMatches",
          "type": "uint256"
        },
        {
          "internalType": "uint256",
          "name": "wonMatches",
          "type": "uint256"
        },
        {
          "internalType": "uint256",
          "name": "totalStaked",
          "type": "uint256"
        },
        {
          "internalType": "uint256",
          "name": "totalWon",
          "type": "uint256"
        }
      ],
      "stateMutability": "view",
      "type": "function"
    },
    {
      "stateMutability": "payable",
      "type": "receive"
    }
  ],
  "bytecode": "0x60806040523480156200001157600080fd5b5060405162002e9f38038062002e9f833981016040819052620000349162000237565b33806200005c57604051631e4fbdf760e01b8152600060048201526024015b60405180910390fd5b6200006781620001ca565b50600180556001600160a01b038216620000c45760405162461bcd60e51b815260206004820152601760248201527f496e76616c696420706c6174666f726d2077616c6c6574000000000000000000604482015260640162000053565b6001600160a01b0381166200011c5760405162461bcd60e51b815260206004820152601660248201527f496e76616c6964206f7261636c65206164647265737300000000000000000000604482015260640162000053565b600a80546001600160a01b038085166001600160a01b0319928316811790935560088054918516919092168117909155600090815260096020526040808220805460ff19166001179055517ff84f6b525c89a18c80bbbc0c62a7eb5390956d6b8432ab067b49963a98f8c38f908290a36040516001600160a01b038216906000907f078c3b417dadf69374a59793b829c52001247130433427049317bde56607b1b7908290a350506200026f565b600080546001600160a01b038381166001600160a01b0319831681178455604051919092169283917f8be0079c531659141344cd1fd0a4f28419497f9722a3daafe3b4186f6b6457e09190a35050565b80516001600160a01b03811681146200023257600080fd5b919050565b600080604083850312156200024b57600080fd5b62000256836200021a565b915062000266602084016200021a565b90509250929050565b612c20806200027f6000396000f3fe6080604052600436106101e75760003560e01c80638456cb5911610102578063d5c1a1e111610095578063fa2af9da11610064578063fa2af9da1461064e578063fd7fef9c1461066e578063feb8c4381461068e578063ffa1ad74146106a157600080fd5b8063d5c1a1e1146105e1578063d73792a914610601578063dd10e10e14610617578063f2fde38b1461062e57600080fd5b8063a89ae4ba116100d1578063a89ae4ba1461053c578063ae4378471461055c578063ccbd649014610594578063d02c8cdf146105c157600080fd5b80638456cb59146104735780638831e9cf146104885780638a65d874146104a85780638da5cb5b1461050a57600080fd5b80634e43603a1161017a57806361c992a31161014957806361c992a3146103f8578063715018a6146104285780637a5a81351461043d5780637adbf9731461045357600080fd5b80634e43603a1461034b5780634e5a68db1461039e57806351e281f2146103b45780635c975abb146103d457600080fd5b806331d2a66a116101b657806331d2a66a146102b15780633d092b3d146102d15780633f4ba83a146102fe5780634768d4ef1461031357600080fd5b806301fd19511461023e57806328e9267a146102675780632930fa49146102895780632f7a889e1461029e57600080fd5b366102395760405162461bcd60e51b815260206004820152601c60248201527f446972656374207472616e7366657273206e6f7420616c6c6f7765640000000060448201526064015b60405180910390fd5b600080fd5b34801561024a57600080fd5b5061025460035481565b6040519081526020015b60405180910390f35b34801561027357600080fd5b50610287610282366004612476565b6106e4565b005b34801561029557600080fd5b50610254603281565b6102546102ac366004612545565b61094e565b3480156102bd57600080fd5b506102876102cc366004612476565b610e2d565b3480156102dd57600080fd5b506102f16102ec3660046125db565b610f2e565b60405161025e91906126b0565b34801561030a57600080fd5b506102876111b4565b34801561031f57600080fd5b5061033361032e3660046125db565b6111c6565b60405161025e9c9b9a999897969594939291906127af565b34801561035757600080fd5b5061036b610366366004612849565b611349565b60405161025e91908151815260208083015190820152604080830151908201526060918201519181019190915260800190565b3480156103aa57600080fd5b50610254610e1081565b3480156103c057600080fd5b506102f16103cf36600461286b565b6113c2565b3480156103e057600080fd5b5060025460ff165b604051901515815260200161025e565b34801561040457600080fd5b506103e8610413366004612849565b60096020526000908152604090205460ff1681565b34801561043457600080fd5b5061028761146e565b34801561044957600080fd5b5061025461012c81565b34801561045f57600080fd5b5061028761046e366004612849565b611480565b34801561047f57600080fd5b5061028761154b565b34801561049457600080fd5b506102876104a3366004612849565b61155b565b3480156104b457600080fd5b506104ea6104c3366004612849565b60066020526000908152604090208054600182015460028301546003909301549192909184565b60408051948552602085019390935291830152606082015260800161025e565b34801561051657600080fd5b506000546001600160a01b03165b6040516001600160a01b03909116815260200161025e565b34801561054857600080fd5b50600854610524906001600160a01b031681565b34801561056857600080fd5b5061025461057736600461286b565b805160208183018101805160058252928201919093012091525481565b3480156105a057600080fd5b506105b46105af366004612849565b611615565b60405161025e91906128a8565b3480156105cd57600080fd5b506102876105dc3660046125db565b611681565b3480156105ed57600080fd5b506102876105fc3660046128ec565b611940565b34801561060d57600080fd5b5061025461271081565b34801561062357600080fd5b5061025462278d0081565b34801561063a57600080fd5b50610287610649366004612849565b611973565b34801561065a57600080fd5b50600a54610524906001600160a01b031681565b34801561067a57600080fd5b50610254610689366004612928565b6119ae565b61028761069c3660046125db565b6119df565b3480156106ad57600080fd5b506106d76040518060400160405280600a815260200169076302e312e302d6d76760b41b81525081565b60405161025e9190612952565b6106ec611d4c565b6106f4611d70565b8160035481106107165760405162461bcd60e51b815260040161023090612965565b60008381526004602052604081209060018083015460ff169081111561073e5761073e6125f4565b1461077e5760405162461bcd60e51b815260206004820152601060248201526f4e6f742072656665726565206d6f646560801b6044820152606401610230565b600181015461010090046001600160a01b031633146107df5760405162461bcd60e51b815260206004820152601e60248201527f4f6e6c7920726566657265652063616e207375626d697420726573756c7400006044820152606401610230565b6001600582015460ff1660038111156107fa576107fa6125f4565b146108475760405162461bcd60e51b815260206004820152601860248201527f4d61746368206973206e6f7420696e2070726f677265737300000000000000006044820152606401610230565b806008015442101561089b5760405162461bcd60e51b815260206004820152601760248201527f4d6174636820686173206e6f7420656e646564207965740000000000000000006044820152606401610230565b60028101546001600160a01b03848116911614806108c8575060038101546001600160a01b038481169116145b6109145760405162461bcd60e51b815260206004820152601c60248201527f57696e6e6572206d7573742062652061207061727469636970616e74000000006044820152606401610230565b600581018054610100600160a81b0319166101006001600160a01b0386160217905561093f84611d9a565b505061094a60018055565b5050565b6000610958611d4c565b610960611d70565b600086116109bf5760405162461bcd60e51b815260206004820152602660248201527f5374616b6520616d6f756e74206d7573742062652067726561746572207468616044820152656e207a65726f60d01b6064820152608401610230565b428511610a0e5760405162461bcd60e51b815260206004820181905260248201527f53746172742074696d65206d75737420626520696e20746865206675747572656044820152606401610230565b848411610a675760405162461bcd60e51b815260206004820152602160248201527f456e642074696d65206d7573742062652061667465722073746172742074696d6044820152606560f81b6064820152608401610230565b610e10610a7486866129bf565b1015610ac25760405162461bcd60e51b815260206004820152601860248201527f4d61746368206475726174696f6e20746f6f2073686f727400000000000000006044820152606401610230565b62278d00610ad086866129bf565b1115610b1e5760405162461bcd60e51b815260206004820152601760248201527f4d61746368206475726174696f6e20746f6f206c6f6e670000000000000000006044820152606401610230565b6001876001811115610b3257610b326125f4565b03610c06576000825111610b985760405162461bcd60e51b815260206004820152602760248201527f45787465726e616c206d6174636820494420726571756972656420666f7220416044820152665049206d6f646560c81b6064820152608401610230565b600582604051610ba891906129d8565b908152602001604051809103902054600014610c065760405162461bcd60e51b815260206004820152601e60248201527f45787465726e616c206d6174636820494420616c7265616479207573656400006044820152606401610230565b3415610c5457853414610c545760405162461bcd60e51b8152602060048201526016602482015275125b98dbdc9c9958dd081cdd185ad948185b5bdd5b9d60521b6044820152606401610230565b6003805460009182610c65836129f4565b9091555060008181526004602052604090208181556001808201805493945091928b929160ff19909116908381811115610ca157610ca16125f4565b02179055506000896001811115610cba57610cba6125f4565b14610cc6576000610cc8565b335b6001820180546001600160a01b039290921661010002610100600160a81b03199092169190911790556004810188905560058101805460ff19169055426006820155600781018790556008810186905560098101610d268682612a90565b50600a8101610d358582612a90565b503415610da8576002810180546001600160a01b0319163390811790915560008181526007602090815260408083208054600181018255908452828420018690555191825284917f49cebb9a586c1e3a485cf361b12f25391e3e11337f46da31d887cd42e3791269910160405180910390a35b835115610dd15781600585604051610dc091906129d8565b908152604051908190036020019020555b336001600160a01b0316827f745e499711cb9a830c6c762c59969dcbb5f15b14f48b389b457107c12cf251ed8b8b89604051610e0f93929190612b50565b60405180910390a3509050610e2360018055565b9695505050505050565b610e35611d4c565b610e3d611d70565b3360009081526009602052604090205460ff1680610e6557506008546001600160a01b031633145b610ea95760405162461bcd60e51b81526020600482015260156024820152744e6f7420617574686f72697a6564206f7261636c6560581b6044820152606401610230565b816003548110610ecb5760405162461bcd60e51b815260040161023090612965565b600083815260046020526040902060018082015460ff1681811115610ef257610ef26125f4565b146107df5760405162461bcd60e51b815260206004820152600c60248201526b4e6f7420415049206d6f646560a01b6044820152606401610230565b610f366123b1565b816003548110610f585760405162461bcd60e51b815260040161023090612965565b60008381526004602090815260409182902082516101a0810190935280548352600180820154919284019160ff1690811115610f9657610f966125f4565b6001811115610fa757610fa76125f4565b8152600182015461010090046001600160a01b031660208201526040805180820180835291909201919060028085019182845b81546001600160a01b03168152600190910190602001808311610fda57505050918352505060048201546020820152600582015460409091019060ff166003811115611028576110286125f4565b6003811115611039576110396125f4565b8152600582015461010090046001600160a01b0316602082015260068201546040820152600782015460608201526008820154608082015260098201805460a09092019161108690612a0d565b80601f01602080910402602001604051908101604052809291908181526020018280546110b290612a0d565b80156110ff5780601f106110d4576101008083540402835291602001916110ff565b820191906000526020600020905b8154815290600101906020018083116110e257829003601f168201915b50505050508152602001600a8201805461111890612a0d565b80601f016020809104026020016040519081016040528092919081815260200182805461114490612a0d565b80156111915780601f1061116657610100808354040283529160200191611191565b820191906000526020600020905b81548152906001019060200180831161117457829003601f168201915b5050509183525050600b919091015460ff16151560209091015291505b50919050565b6111bc6120d7565b6111c4612104565b565b600460208190526000918252604090912080546001820154928201546005830154600684015460078501546008860154600987018054969860ff808216996001600160a01b036101009384900481169a9289169893909304909216959493929061122f90612a0d565b80601f016020809104026020016040519081016040528092919081815260200182805461125b90612a0d565b80156112a85780601f1061127d576101008083540402835291602001916112a8565b820191906000526020600020905b81548152906001019060200180831161128b57829003601f168201915b50505050509080600a0180546112bd90612a0d565b80601f01602080910402602001604051908101604052809291908181526020018280546112e990612a0d565b80156113365780601f1061130b57610100808354040283529160200191611336565b820191906000526020600020905b81548152906001019060200180831161131957829003601f168201915b505050600b909301549192505060ff168c565b6113746040518060800160405280600081526020016000815260200160008152602001600081525090565b506001600160a01b0316600090815260066020908152604091829020825160808101845281548152600182015492810192909252600281015492820192909252600390910154606082015290565b6113ca6123b1565b60006005836040516113dc91906129d8565b908152602001604051809103902054905060035481106114305760405162461bcd60e51b815260206004820152600f60248201526e13585d18da081b9bdd08199bdd5b99608a1b6044820152606401610230565b60008181526004602090815260409182902082516101a0810190935280548352600180820154919284019160ff1690811115610f9657610f966125f4565b6114766120d7565b6111c46000612156565b6114886120d7565b6001600160a01b0381166114d75760405162461bcd60e51b8152602060048201526016602482015275496e76616c6964206f7261636c65206164647265737360501b6044820152606401610230565b6008546040516001600160a01b038084169216907f078c3b417dadf69374a59793b829c52001247130433427049317bde56607b1b790600090a3600880546001600160a01b039092166001600160a01b0319909216821790556000908152600960205260409020805460ff19166001179055565b6115536120d7565b6111c46121a6565b6115636120d7565b6001600160a01b0381166115b95760405162461bcd60e51b815260206004820152601760248201527f496e76616c696420706c6174666f726d2077616c6c65740000000000000000006044820152606401610230565b600a546040516001600160a01b038084169216907ff84f6b525c89a18c80bbbc0c62a7eb5390956d6b8432ab067b49963a98f8c38f90600090a3600a80546001600160a01b0319166001600160a01b0392909216919091179055565b6001600160a01b03811660009081526007602090815260409182902080548351818402810184019094528084526060939283018282801561167557602002820191906000526020600020905b815481526020019060010190808311611661575b50505050509050919050565b611689611d4c565b611691611d70565b8060035481106116b35760405162461bcd60e51b815260040161023090612965565b600082815260046020526040812090600582015460ff1660038111156116db576116db6125f4565b146117285760405162461bcd60e51b815260206004820152601f60248201527f43616e206f6e6c792063616e63656c2077616974696e67206d617463686573006044820152606401610230565b80600701544210158061174c5750600181015461010090046001600160a01b031633145b80611779575060028101546001600160a01b031633148015611779575060038101546001600160a01b0316155b6117c55760405162461bcd60e51b815260206004820152601860248201527f4e6f7420617574686f72697a656420746f2063616e63656c00000000000000006044820152606401610230565b60005b60028160ff1610156118ca5760006001600160a01b0316826002018260ff16600281106117f7576117f7612993565b01546001600160a01b0316146118b8576000826002018260ff166002811061182157611821612993565b015460048401546040516001600160a01b0390921691600081818185875af1925050503d8060008114611870576040519150601f19603f3d011682016040523d82523d6000602084013e611875565b606091505b50509050806118b65760405162461bcd60e51b815260206004820152600d60248201526c1499599d5b990819985a5b1959609a1b6044820152606401610230565b505b806118c281612b7f565b9150506117c8565b5060058101805460ff19166003179055604080516020808252600f908201526e13585d18da0818d85b98d95b1b1959608a1b9181019190915283907fbe9561483b1664685b575e72966584b8b66b253bd4f2e55e045e00db8fc134af9060600160405180910390a2505061193d60018055565b50565b6119486120d7565b6001600160a01b03919091166000908152600960205260409020805460ff1916911515919091179055565b61197b6120d7565b6001600160a01b0381166119a557604051631e4fbdf760e01b815260006004820152602401610230565b61193d81612156565b600760205281600052604060002081815481106119ca57600080fd5b90600052602060002001600091509150505481565b6119e7611d4c565b6119ef611d70565b806003548110611a115760405162461bcd60e51b815260040161023090612965565b600082815260046020526040812090600582015460ff166003811115611a3957611a396125f4565b1480611a5d57506001600582015460ff166003811115611a5b57611a5b6125f4565b145b611ab55760405162461bcd60e51b815260206004820152602360248201527f4d61746368206973206e6f7420616363657074696e67207061727469636970616044820152626e747360e81b6064820152608401610230565b80600401543414611b015760405162461bcd60e51b8152602060048201526016602482015275125b98dbdc9c9958dd081cdd185ad948185b5bdd5b9d60521b6044820152606401610230565b80600701544210611b545760405162461bcd60e51b815260206004820152601960248201527f4d617463682068617320616c72656164792073746172746564000000000000006044820152606401610230565b60028101546001600160a01b03163314801590611b7e575060038101546001600160a01b03163314155b611bbb5760405162461bcd60e51b815260206004820152600e60248201526d105b1c9958591e481a9bda5b995960921b6044820152606401610230565b60028101546000906001600160a01b0316611bec57506002810180546001600160a01b031916331790556000611c52565b60038201546001600160a01b0316611c1a57506003810180546001600160a01b031916331790556001611c52565b60405162461bcd60e51b815260206004820152600d60248201526c13585d18da081a5cc8199d5b1b609a1b6044820152606401610230565b336000818152600760209081526040808320805460018101825590845292829020909201879055905160ff8416815286917f49cebb9a586c1e3a485cf361b12f25391e3e11337f46da31d887cd42e3791269910160405180910390a360028201546001600160a01b031615801590611cd6575060038201546001600160a01b031615155b15611d405760058201805460ff191660011790556003820154600283015460078401546040519081526001600160a01b0392831692919091169086907f84c1acfa01501ec6e33898bb7c9214214b4ee42cdabd3d79416ad396e14aaff89060200160405180910390a45b50505061193d60018055565b60025460ff16156111c45760405163d93c066560e01b815260040160405180910390fd5b600260015403611d9357604051633ee5aeb560e01b815260040160405180910390fd5b6002600155565b6000818152600460208190526040822090810154909190611dbc906002612b9e565b9050600080808060018087015460ff1690811115611ddc57611ddc6125f4565b03611edf57612710611df061012c86612b9e565b611dfa9190612bb5565b9250612710611e0a603286612b9e565b611e149190612bb5565b915081611e2184866129bf565b611e2b91906129bf565b60018601546040519192506000916101009091046001600160a01b03169085908381818185875af1925050503d8060008114611e83576040519150601f19603f3d011682016040523d82523d6000602084013e611e88565b606091505b5050905080611ed95760405162461bcd60e51b815260206004820152601760248201527f52656665726565207472616e73666572206661696c65640000000000000000006044820152606401610230565b50611f06565b612710611eed603286612b9e565b611ef79190612bb5565b9150611f0382856129bf565b90505b600a546040516000916001600160a01b03169084908381818185875af1925050503d8060008114611f53576040519150601f19603f3d011682016040523d82523d6000602084013e611f58565b606091505b5050905080611fa95760405162461bcd60e51b815260206004820152601860248201527f506c6174666f726d207472616e73666572206661696c656400000000000000006044820152606401610230565b600586015460405160009161010090046001600160a01b03169084908381818185875af1925050503d8060008114611ffd576040519150601f19603f3d011682016040523d82523d6000602084013e612002565b606091505b505090508061204c5760405162461bcd60e51b815260206004820152601660248201527515da5b9b995c881d1c985b9cd9995c8819985a5b195960521b6044820152606401610230565b60058701805460ff19908116600217909155600b880180549091166001179055612075876121e3565b600587015460408051858152602081018890529081018690526101009091046001600160a01b03169089907f75e2cdfe1f471809c44494c67c6ea8a7740906853f2bdb774ecdbb39f5ce08129060600160405180910390a35050505050505050565b6000546001600160a01b031633146111c45760405163118cdaa760e01b8152336004820152602401610230565b61210c61238e565b6002805460ff191690557f5db9ee0a495bf2e6ff9c91a7834c1ba4fdd244a5e8aa4e537bd38aeae4b073aa335b6040516001600160a01b03909116815260200160405180910390a1565b600080546001600160a01b038381166001600160a01b0319831681178455604051919092169283917f8be0079c531659141344cd1fd0a4f28419497f9722a3daafe3b4186f6b6457e09190a35050565b6121ae611d4c565b6002805460ff191660011790557f62e78cea01bee320cd4e420270b5ea74000d11b0c9f74754ebdbfc544b05a2586121393390565b600581015461010090046001600160a01b0316600081600284018201546001600160a01b0316146122215760028301546001600160a01b0316612230565b60038301546001600160a01b03165b6001600160a01b038316600090815260066020526040812080549293509190829061225a836129f4565b9091555050600181018054906000612271836129f4565b9190505550836004015481600201600082825461228e9190612bd7565b909155505060048401546000906122a6906002612b9e565b905060008060018088015460ff16908111156122c4576122c46125f4565b036122fe576127106122d9603261012c612bd7565b6122e39084612b9e565b6122ed9190612bb5565b6122f790836129bf565b9050612323565b61271061230c603284612b9e565b6123169190612bb5565b61232090836129bf565b90505b808360030160008282546123379190612bd7565b90915550506001600160a01b0384166000908152600660205260408120805490918290612363836129f4565b919050555086600401548160020160008282546123809190612bd7565b909155505050505050505050565b60025460ff166111c457604051638dfc202b60e01b815260040160405180910390fd5b604080516101a08101909152600080825260208201908152600060208201526040016123db61243c565b815260200160008152602001600060038111156123fa576123fa6125f4565b815260200160006001600160a01b0316815260200160008152602001600081526020016000815260200160608152602001606081526020016000151581525090565b60405180604001604052806002906020820280368337509192915050565b80356001600160a01b038116811461247157600080fd5b919050565b6000806040838503121561248957600080fd5b823591506124996020840161245a565b90509250929050565b634e487b7160e01b600052604160045260246000fd5b600082601f8301126124c957600080fd5b813567ffffffffffffffff808211156124e4576124e46124a2565b604051601f8301601f19908116603f0116810190828211818310171561250c5761250c6124a2565b8160405283815286602085880101111561252557600080fd5b836020870160208301376000602085830101528094505050505092915050565b60008060008060008060c0878903121561255e57600080fd5b86356002811061256d57600080fd5b9550602087013594506040870135935060608701359250608087013567ffffffffffffffff8082111561259f57600080fd5b6125ab8a838b016124b8565b935060a08901359150808211156125c157600080fd5b506125ce89828a016124b8565b9150509295509295509295565b6000602082840312156125ed57600080fd5b5035919050565b634e487b7160e01b600052602160045260246000fd5b6002811061261a5761261a6125f4565b9052565b8060005b600281101561264a5781516001600160a01b0316845260209384019390910190600101612622565b50505050565b6004811061261a5761261a6125f4565b60005b8381101561267b578181015183820152602001612663565b50506000910152565b6000815180845261269c816020860160208601612660565b601f01601f19169290920160200192915050565b6020815281516020820152600060208301516126cf604084018261260a565b5060408301516001600160a01b03811660608401525060608301516126f7608084018261261e565b50608083015160c083015260a083015161271460e0840182612650565b5060c0830151610100612731818501836001600160a01b03169052565b60e08501516101208581019190915290850151610140808601919091529085015161016080860191909152908501516101c0610180808701829052919350919061277f6101e0870185612684565b91870151868303601f19016101a088015291935061279d8483612684565b96015115159190940152509192915050565b60006101808e83526127c4602084018f61260a565b6001600160a01b038d81166040850152606084018d90526127e8608085018d612650565b808b1660a0850152508860c08401528760e0840152866101008401528061012084015261281781840187612684565b905082810361014084015261282c8186612684565b9150508215156101608301529d9c50505050505050505050505050565b60006020828403121561285b57600080fd5b6128648261245a565b9392505050565b60006020828403121561287d57600080fd5b813567ffffffffffffffff81111561289457600080fd5b6128a0848285016124b8565b949350505050565b6020808252825182820181905260009190848201906040850190845b818110156128e0578351835292840192918401916001016128c4565b50909695505050505050565b600080604083850312156128ff57600080fd5b6129088361245a565b91506020830135801515811461291d57600080fd5b809150509250929050565b6000806040838503121561293b57600080fd5b6129448361245a565b946020939093013593505050565b6020815260006128646020830184612684565b60208082526014908201527313585d18da08191bd95cc81b9bdd08195e1a5cdd60621b604082015260600190565b634e487b7160e01b600052603260045260246000fd5b634e487b7160e01b600052601160045260246000fd5b818103818111156129d2576129d26129a9565b92915050565b600082516129ea818460208701612660565b9190910192915050565b600060018201612a0657612a066129a9565b5060010190565b600181811c90821680612a2157607f821691505b6020821081036111ae57634e487b7160e01b600052602260045260246000fd5b601f821115612a8b57600081815260208120601f850160051c81016020861015612a685750805b601f850160051c820191505b81811015612a8757828155600101612a74565b5050505b505050565b815167ffffffffffffffff811115612aaa57612aaa6124a2565b612abe81612ab88454612a0d565b84612a41565b602080601f831160018114612af35760008415612adb5750858301515b600019600386901b1c1916600185901b178555612a87565b600085815260208120601f198616915b82811015612b2257888601518255948401946001909101908401612b03565b5085821015612b405787850151600019600388901b60f8161c191681555b5050505050600190811b01905550565b612b5a818561260a565b826020820152606060408201526000612b766060830184612684565b95945050505050565b600060ff821660ff8103612b9557612b956129a9565b60010192915050565b80820281158282048414176129d2576129d26129a9565b600082612bd257634e487b7160e01b600052601260045260246000fd5b500490565b808201808211156129d2576129d26129a956fea264697066735822122063b05c20555408e1fa686cbac139c423a974fcc610cdc58f158560dbc0cfca9264736f6c63430008140033",
  "linkReferences": {},
  "deployedLinkReferences": {}
}